{
  "contractName": "Soulve",
  "abi": [
    {
      "stateMutability": "payable",
      "type": "receive",
      "payable": true
    },
    {
      "inputs": [
        {
          "internalType": "bytes",
          "name": "_MESSAGE",
          "type": "bytes"
        },
        {
          "internalType": "bytes",
          "name": "_SIGNATURE",
          "type": "bytes"
        }
      ],
      "name": "soulve",
      "outputs": [],
      "stateMutability": "payable",
      "type": "function",
      "payable": true
    }
  ],
  "bytecode": "0x60806040526040518060a001604052806080815260200161080e6080913960009080519060200190610032929190610074565b506040518060a001604052806080815260200161078e6080913960019080519060200190610061929190610074565b5034801561006e57600080fd5b50610119565b828054600181600116156101000203166002900490600052602060002090601f016020900481019282601f106100b557805160ff19168380011785556100e3565b828001600101855582156100e3579182015b828111156100e25782518255916020019190600101906100c7565b5b5090506100f091906100f4565b5090565b61011691905b808211156101125760008160009055506001016100fa565b5090565b90565b610666806101286000396000f3fe6080604052600436106100225760003560e01c8063888532291461002e57610029565b3661002957005b600080fd5b61017e6004803603604081101561004457600080fd5b810190808035906020019064010000000081111561006157600080fd5b82018360208201111561007357600080fd5b8035906020019184600183028401116401000000008311171561009557600080fd5b91908080601f016020809104026020016040519081016040528093929190818152602001838380828437600081840152601f19601f820116905080830192505050505050509192919290803590602001906401000000008111156100f857600080fd5b82018360208201111561010a57600080fd5b8035906020019184600183028401116401000000008311171561012c57600080fd5b91908080601f016020809104026020016040519081016040528093929190818152602001838380828437600081840152601f19601f820116905080830192505050505050509192919290505050610180565b005b33604051602001808273ffffffffffffffffffffffffffffffffffffffff1673ffffffffffffffffffffffffffffffffffffffff1660601b8152601401915050604051602081830303815290604052805190602001206040516020018082815260200191505060405160208183030381529060405280519060200120826040516020018082805190602001908083835b602083106102335780518252602082019150602081019050602083039250610210565b6001836020036101000a03801982511681845116808217855250505050505090500191505060405160208183030381529060405280519060200120146102e1576040517f08c379a00000000000000000000000000000000000000000000000000000000081526004018080602001828103825260098152602001807f307844313545413545000000000000000000000000000000000000000000000081525060200191505060405180910390fd5b600073__SolRsaVerify__________________________632ae0783d8484600160006040518563ffffffff1660e01b81526004018080602001806020018060200180602001858103855289818151815260200191508051906020019080838360005b8381101561035e578082015181840152602081019050610343565b50505050905090810190601f16801561038b5780820380516001836020036101000a031916815260200191505b50858103845288818151815260200191508051906020019080838360005b838110156103c45780820151818401526020810190506103a9565b50505050905090810190601f1680156103f15780820380516001836020036101000a031916815260200191505b508581038352878181546001816001161561010002031660029004815260200191508054600181600116156101000203166002900480156104735780601f1061044857610100808354040283529160200191610473565b820191906000526020600020905b81548152906001019060200180831161045657829003601f168201915b50508581038252868181546001816001161561010002031660029004815260200191508054600181600116156101000203166002900480156104f65780601f106104cb576101008083540402835291602001916104f6565b820191906000526020600020905b8154815290600101906020018083116104d957829003601f168201915b50509850505050505050505060206040518083038186803b15801561051a57600080fd5b505af415801561052e573d6000803e3d6000fd5b505050506040513d602081101561054457600080fd5b81019080805190602001909291905050509050600081146105cd576040517f08c379a00000000000000000000000000000000000000000000000000000000081526004018080602001828103825260098152602001807f307844313545413545000000000000000000000000000000000000000000000081525060200191505060405180910390fd5b3373ffffffffffffffffffffffffffffffffffffffff166108fc3073ffffffffffffffffffffffffffffffffffffffff16319081150290604051600060405180830381858888f1935050505015801561062a573d6000803e3d6000fd5b5050505056fea26469706673582212204fc832a7cfefef7ee9d3e530e121dd6f13a50cfcbba8a6dea00aeceb2c64c94564736f6c63430006000033000000000000000000000000000000000000000000000000000000000000000000000000000000000000000000000000000000000000000000000000000000000000000000000000000000000000000000000000000000000000000000000000000000000000000000000000000000000000000000000000000000000001000186e996013e77c41699000e0941d480c046b2f71a4f95b350ac1a4d426372923d8a4561d96fbfb0240595907201ad3225cf6eded7de02d91c386ffac280b732ee4c9c0042007af5e6d42d8960f00e716a8801a37fc23ea0e7ed4be6ce248996ef61ef6a1f936b47a101ea5bc3c2467938bd4d3cdb3b2f5cb8fea75665bf6d4195",
  "source": "pragma solidity ^0.6.0;\n\nimport {SolRsaVerify} from \"./SolRsaVerify.sol\";\n\ncontract Soulve {\n  /* some big hex strings */\n  bytes MODULUS = hex\"86E996013E77C41699000E0941D480C046B2F71A4F95B350AC1A4D426372923D8A4561D96FBFB0240595907201AD3225CF6EDED7DE02D91C386FFAC280B732EE4C9C0042007AF5E6D42D8960F00E716A8801A37FC23EA0E7ED4BE6CE248996EF61EF6A1F936B47A101EA5BC3C2467938BD4D3CDB3B2F5CB8FEA75665BF6D4195\";\n  bytes EXPONENT = hex\"0000000000000000000000000000000000000000000000000000000000000000000000000000000000000000000000000000000000000000000000000000000000000000000000000000000000000000000000000000000000000000000000000000000000000000000000000000000000000000000000000000000000010001\";\n  /* yeet */\n  function soulve(bytes memory _MESSAGE, bytes memory _SIGNATURE) public payable {\n    /* o.O */\n    require(keccak256(abi.encodePacked(_MESSAGE)) == keccak256(abi.encodePacked(keccak256(abi.encodePacked(msg.sender)))), '0xD15EA5E' );\n    /* ez */\n    uint soulveSig = SolRsaVerify.pkcs1Sha256VerifyRaw(_MESSAGE, _SIGNATURE, EXPONENT, MODULUS);\n    /* soulved? */\n    require(soulveSig == 0, '0xD15EA5E');\n    /* swag */\n    msg.sender.transfer(address(this).balance);\n  }\n\n  /* load the loot */\n  receive() external payable {}\n\n}\n",
  "sourcePath": "/home/cr0wngh0ul/NEW_PUZZLE/Contract/contracts/Soulve.sol",
  "compiler": {
    "name": "solc",
    "version": "0.6.0+commit.26b70077.Emscripten.clang"
  },
  "schemaVersion": "3.1.0",
  "updatedAt": "2020-05-02T01:48:17.784Z",
  "networkType": "ethereum",
  "devdoc": {
    "methods": {}
  },
  "userdoc": {
    "methods": {}
  }
}